{
  "contractName": "Organizations",
  "abi": [
    {
      "constant": false,
      "inputs": [
        {
          "name": "_worker",
          "type": "address"
        },
        {
          "name": "rewardAmount",
          "type": "uint256"
        }
      ],
      "name": "rewardWorker",
      "outputs": [
        {
          "name": "success",
          "type": "bool"
        }
      ],
      "payable": false,
      "stateMutability": "nonpayable",
      "type": "function"
    },
    {
      "constant": true,
      "inputs": [],
      "name": "getOrganizationBalance",
      "outputs": [
        {
          "name": "",
          "type": "uint256"
        }
      ],
      "payable": false,
      "stateMutability": "view",
      "type": "function"
    },
    {
      "constant": false,
      "inputs": [],
      "name": "addOrganization",
      "outputs": [
        {
          "name": "success",
          "type": "bool"
        }
      ],
      "payable": false,
      "stateMutability": "nonpayable",
      "type": "function"
    },
    {
      "constant": true,
      "inputs": [],
      "name": "contractBalance",
      "outputs": [
        {
          "name": "",
          "type": "uint256"
        }
      ],
      "payable": false,
      "stateMutability": "view",
      "type": "function"
    },
    {
      "constant": false,
      "inputs": [],
      "name": "deposit",
      "outputs": [
        {
          "name": "success",
          "type": "bool"
        }
      ],
      "payable": true,
      "stateMutability": "payable",
      "type": "function"
    },
    {
      "anonymous": false,
      "inputs": [
        {
          "indexed": false,
          "name": "_org",
          "type": "address"
        }
      ],
      "name": "LogOrganizationAdded",
      "type": "event"
    },
    {
      "anonymous": false,
      "inputs": [
        {
          "indexed": false,
          "name": "_worker",
          "type": "address"
        },
        {
          "indexed": false,
          "name": "_reward",
          "type": "uint256"
        }
      ],
      "name": "LogWorkerRewarded",
      "type": "event"
    },
    {
      "anonymous": false,
      "inputs": [
        {
          "indexed": false,
          "name": "amount",
          "type": "uint256"
        }
      ],
      "name": "LogDeposit",
      "type": "event"
    }
  ],
  "bytecode": "0x6060604052341561000f57600080fd5b61067b8061001e6000396000f30060606040526004361061006d576000357c0100000000000000000000000000000000000000000000000000000000900463ffffffff1680630e119595146100725780633067a92c146100cc5780634905507a146100f55780638b7afe2e14610122578063d0e30db01461014b575b600080fd5b341561007d57600080fd5b6100b2600480803573ffffffffffffffffffffffffffffffffffffffff1690602001909190803590602001909190505061016d565b604051808215151515815260200191505060405180910390f35b34156100d757600080fd5b6100df61037a565b6040518082815260200191505060405180910390f35b341561010057600080fd5b610108610420565b604051808215151515815260200191505060405180910390f35b341561012d57600080fd5b610135610540565b6040518082815260200191505060405180910390f35b610153610546565b604051808215151515815260200191505060405180910390f35b60008260008173ffffffffffffffffffffffffffffffffffffffff161415151561019657600080fd5b82600081141515156101a757600080fd5b60011515600160003373ffffffffffffffffffffffffffffffffffffffff1673ffffffffffffffffffffffffffffffffffffffff16815260200190815260200160002060009054906101000a900460ff16151514151561020657600080fd5b838060005411151561021757600080fd5b8480600260003373ffffffffffffffffffffffffffffffffffffffff1673ffffffffffffffffffffffffffffffffffffffff1681526020019081526020016000205411151561026557600080fd5b85600080828254039250508190555085600260003373ffffffffffffffffffffffffffffffffffffffff1673ffffffffffffffffffffffffffffffffffffffff168152602001908152602001600020600082825403925050819055507f93d129201718b3e0fc9996c44810c988aeffe5f00f8861c2d928dd047ff1038a8787604051808373ffffffffffffffffffffffffffffffffffffffff1673ffffffffffffffffffffffffffffffffffffffff1681526020018281526020019250505060405180910390a18673ffffffffffffffffffffffffffffffffffffffff166108fc879081150290604051600060405180830381858888f19350505050151561036c57600080fd5b600194505050505092915050565b600060011515600160003373ffffffffffffffffffffffffffffffffffffffff1673ffffffffffffffffffffffffffffffffffffffff16815260200190815260200160002060009054906101000a900460ff1615151415156103db57600080fd5b600260003373ffffffffffffffffffffffffffffffffffffffff1673ffffffffffffffffffffffffffffffffffffffff16815260200190815260200160002054905090565b6000801515600160003373ffffffffffffffffffffffffffffffffffffffff1673ffffffffffffffffffffffffffffffffffffffff16815260200190815260200160002060009054906101000a900460ff16151514151561048057600080fd5b60018060003373ffffffffffffffffffffffffffffffffffffffff1673ffffffffffffffffffffffffffffffffffffffff16815260200190815260200160002060006101000a81548160ff0219169083151502179055507ff2f722e29496b55218df292568d90afde2d0c0eca139fb31a280d5b49e91d69e33604051808273ffffffffffffffffffffffffffffffffffffffff1673ffffffffffffffffffffffffffffffffffffffff16815260200191505060405180910390a180905090565b60005481565b6000803411151561055657600080fd5b60011515600160003373ffffffffffffffffffffffffffffffffffffffff1673ffffffffffffffffffffffffffffffffffffffff16815260200190815260200160002060009054906101000a900460ff1615151415156105b557600080fd5b34600080828254019250508190555034600260003373ffffffffffffffffffffffffffffffffffffffff1673ffffffffffffffffffffffffffffffffffffffff168152602001908152602001600020600082825401925050819055507ff641ad64267ca71156d13749ad746155df3095d9afeb604fe3b53016ce5fc8ba346040518082815260200191505060405180910390a160019050905600a165627a7a723058202315652f68b1e9fdf7c2f86ca53b15dc8d3b6ced30a7f8744f4b82920690f2b90029",
  "source": "pragma solidity ^0.4.17;\n\n\ncontract Organizations {\n    uint public contractBalance;\n    mapping(address => bool) private orgExistanceMapping;\n    mapping(address => uint) private orgBalanceMapping;\n\n    event LogOrganizationAdded(address _org);\n    event LogWorkerRewarded(address _worker, uint _reward);\n    event LogDeposit(uint amount);\n\n    function addOrganization()\n    public\n    isNewOrganization()\n    returns (bool success)\n    {\n        orgExistanceMapping[msg.sender] = true;\n        LogOrganizationAdded(msg.sender);\n        return success;\n    }\n\n    function rewardWorker(address _worker, uint rewardAmount)\n    public\n    validWorkerAddress(_worker)\n    isValidRewardAmount(rewardAmount)\n    isExistingOrganization()\n    sufficientContractFunds(rewardAmount)\n    sufficientOrgFunds(rewardAmount)\n    returns (bool success)\n    {\n        contractBalance -= rewardAmount;\n        orgBalanceMapping[msg.sender] -= rewardAmount;\n        LogWorkerRewarded(_worker, rewardAmount);\n        _worker.transfer(rewardAmount);\n        return true;\n    }\n\n    function deposit()\n    public\n    payable\n    depositNotZero()\n    isExistingOrganization()\n    returns (bool success)\n    {\n        contractBalance += msg.value;\n        orgBalanceMapping[msg.sender] += msg.value;\n        LogDeposit(msg.value);\n        return true;\n    }\n\n    function getOrganizationBalance()\n    public\n    constant\n    isExistingOrganization()\n    returns (uint)\n    {\n        return orgBalanceMapping[msg.sender];\n    }\n\n    modifier depositNotZero() {\n        require(msg.value > 0);\n        _;\n    }\n\n    modifier isNewOrganization() {\n        require(orgExistanceMapping[msg.sender] == false);\n        _;\n    }\n\n    modifier isExistingOrganization() {\n        require(orgExistanceMapping[msg.sender] == true);\n        _;\n    }\n\n    modifier validWorkerAddress(address _worker) {\n        require(_worker != 0);\n        _;\n    }\n\n    modifier isValidRewardAmount(uint _reward) {\n        require(_reward != 0);\n        _;\n    }\n\n    modifier sufficientContractFunds(uint _reward) {\n        require(contractBalance > _reward);\n        _;\n    }\n\n    modifier sufficientOrgFunds(uint _reward) {\n        require(orgBalanceMapping[msg.sender] > _reward);\n        _;\n    }\n}\n",
  "sourcePath": "/Users/nikhilwins/Desktop/ethtask/frontend-old/static/contracts/contracts/Organizations.sol",
  "compiler": {
    "name": "solc",
    "version": "0.4.18+commit.9cf6e910.Emscripten.clang"
  },
  "schemaVersion": "1.0.1",
  "updatedAt": "2018-01-09T17:33:40.001Z"
}